:020000040000FA
:060000000A128A11EA2F2A
:100DCC0036344134373432343434333431343034CF
:100DDC00203400347E088A007F0882000A128A11AF
:100DEC00F0260A128A118000840A04087D06031971
:100DFC000034FF0A0319FE0AF42EF201F30100007D
:100E0C000130F2070318F30A0030F3077308803A35
:100E1C00FF0083307F02031D152FE8307202031C84
:100E2C00182F192F052F08007430831603138F0009
:100E3C0001308316031788008901831603139F0161
:100E4C000130831203139F008501FF3083160313B7
:100E5C008500831203138601831603138601C030A9
:100E6C008800831203138801C0308B008316031390
:100E7C008C018312031387018030831603138700C0
:100E8C009816181283120313981783160313181548
:100E9C008312031318160830831603139900E830D5
:100EAC00F0000330F1000A128A1103270A128A118A
:100EBC0083120313DE01DF014330831203139F00FF
:100ECC00822F1E088600831603131E088312031339
:100EDC0088001E08F4005E08203E8400740883130A
:100EEC008000831603131E08F400831203135E089C
:100EFC00A03E8400740880009F18852F862F672FD2
:100F0C00523084006030F4000408F5000A30F6001A
:100F1C007408840083130008F700F40A7508840031
:100F2C0077088000F50AF60B8E2FDC01DD01A62F69
:100F3C00831203135C08523E84008313000899004B
:100F4C00831603139818AB2FAC2F9E2F981CAF2F22
:100F5C00B02FAC2F013083120313DC070318DD0A0A
:100F6C000030DD075D08803AFF0080307F02031DF2
:100F7C00C12F0A305C02031CC42FC52FA62F66306C
:100F8C00F6007630F500C130F400F40BCB2FF50BE6
:100F9C00CB2FF60BCB2F013083120313DE07031874
:100FAC00DF0A0030DF075F08803AFF0080307F02E5
:100FBC00031DE22F32305E02031CE52FE62F622F59
:100FCC005E2F0A128A11002883136A30FD00063046
:100FDC00FE00E630FF00603084000A128A11F4260D
:100FEC000A128A11F801F901FA01FB0183010A12B4
:040FFC008A111A2F0D
:04400E00D42CFF3F70
:00000001FF
